:020000040800F2
:1000000000040020470100085501000857010008BE
:10001000590100085B0100085D01000800000000B4
:100020000000000000000000000000005F01000868
:10003000610100080000000063010008650100087C
:1000400067010008670100086701000867010008F0
:1000500067010008670100086701000867010008E0
:1000600067010008670100086701000867010008D0
:1000700067010008670100086701000867010008C0
:1000800067010008670100086701000867010008B0
:1000900067010008670100086701000867010008A0
:1000A0006701000867010008670100086701000890
:1000B000490F000867010008670100086701000890
:1000C0006701000867010008670100086701000870
:1000D00067010008C9100008211100086701000825
:1000E0006701000867010008670100086701000850
:1000F0006701000867010008670100086701000840
:10010000670100086701000867010008670100082F
:10011000670100086701000867010008670100081F
:10012000670100086701000867010008670100080F
:10013000DFF80CD000F042FA00480047E91F000841
:10014000000A0020704708488047084981F3088862
:1001500007480047FEE7FEE7FEE7FEE7FEE7FEE7AB
:10016000FEE7FEE7FEE7FEE745010008000A002083
:1001700031010008D2B201E000F8012B491EFBD288
:1001800070470022F6E710B513460A4604461946A2
:10019000FFF7F0FF204610BD30B505462A460B4656
:1001A00012F8010B13F8014B08B1A042F8D01CB1B2
:1001B000002802D06D1CF1E7284630BD30B50B4653
:1001C000014600202022012409E021FA02F59D4287
:1001D00005D303FA02F5491B04FA02F52844151E5B
:1001E000A2F10102F1DC30BD2DE9F05F05460020EF
:1001F00092469B4688460646814640241BE0284698
:1002000041464746224600F0FAF953465A46C01A7C
:10021000914110D311461846224600F0E1F92D1AFB
:1002200067EB01084F4622460120002100F0D8F973
:1002300017EB00094E41201EA4F10104DFDC484603
:1002400031462A464346BDE8F09F2DE9FE4F8046E1
:1002500081EA0300C00F0C46009021F0004123F01A
:100260000045B8EB0200A94105D240462146904620
:100270001C460B46024623F00040104347D0270D92
:10028000C7F30A00C3F30A510290401A01904028B4
:100290006BDAC3F3130040F4801B0098924620B140
:1002A0000023D2EB030A63EB0B0B01985946C0F114
:1002B0004002504600F094F906460D465046594615
:1002C000019A00F0ACF910EB08006141002487EAC4
:1002D000115284EAE7731A4340D0009A62B3019A3C
:1002E000012A4FEA075215DC001B61EB02014FF0B7
:1002F000004202EA0752CDE90042001C41F580119C
:1003000032462B4600F0ACF903B0BDE8F08F404612
:100310002146F9E7001B61EB0201001C41F5801347
:1003200000185B412018A2F5001747EB030140EAD3
:10033000D570B6196D4111E06D084FEA360645EAF1
:10034000C0754FEA0752001B61EB0201001C41F52A
:10035000801149084FEA30000019514132462B46BE
:1003600003B0BDE8F04F00F06CB9009801224000E6
:100370000023D0EB020263EBE073009821464FEAC2
:10038000E074B8EB000061EB0401E9E783F000439F
:100390005BE781F0004158E72DE9FE4F81EA030455
:1003A00004F0004421F0004100944FF0000B23F0D2
:1003B000004350EA01045ED052EA03045BD0C3F369
:1003C0000A54C1F30A552C44A4F2F3340194A0FB5F
:1003D0000254C1F3130141F48011C3F3130343F436
:1003E000801301FB024400FB034E840A970A44EA8F
:1003F000815447EA8357A4FB076802958D0A05FBE1
:1004000007854FEA932C04FB0C542705029D4FEA05
:10041000065847EA1637B5EB08056EEB070C870E52
:10042000920E47EA811742EA8312A7FB0201B6EB5C
:100430000B0164EB00042B0D43EA0C335E1844EB14
:100440001C50DA465146E7FB0201C5F313044FEA9C
:100450000B3343EA14534FEA0432019C43EA060388
:10046000A4F10C040294009CCDE900B400F0F8F86B
:1004700003B0BDE8F08F00200146F9E72DE9F04D0B
:1004800081EA030404F0004B21F0004514464FF0CC
:10049000000A23F0004150EA050220D054EA01028C
:1004A0001DD0C5F30A570246C5F31303C1F3130069
:1004B000C1F30A5640F4801543F48013A7EB0608F5
:1004C000101BD64608F2FD3873EB050002D308F185
:1004D000010801E092185B41B8F1000F03DA002037
:1004E0000146BDE8F08D00204FF480110646844699
:1004F0000EE0171B73EB050705D3121B63EB050317
:1005000006434CEA010C49084FEA300092185B415F
:1005100050EA0107EDD152EA030012D082EA04004A
:1005200083EA0501084305D0101BAB4106D2012226
:10053000002306E000224FF0004302E06FF00102CA
:1005400053101AEB06004CEB085110EB0A0041EB7C
:100550000B01BDE8F04D00F074B8C1F30A52C1F3CD
:10056000130140F2FF3341F480119A4202DA002075
:100570000146704740F233439A42A2F2334202DC12
:10058000524200F03CB800F02BB8000030B5041E19
:1005900071F1000404DB4FF00044404264EB0101C0
:1005A000141E73F1000405DB1C464FF00043524259
:1005B00063EB0403994208BF904230BD064C074DDF
:1005C00006E0E06840F0010394E807009847103423
:1005D000AC42F6D3FFF7B0FDC4300008E4300008A9
:1005E000202A04DB203A00FA02F1002070479140F3
:1005F000C2F1200320FA03F3194390407047202AE8
:1006000004DB203A21FA02F00021704721FA02F3BC
:10061000D040C2F120029140084319467047202A79
:1006200006DBCB17203A41FA02F043EAE07306E01A
:1006300041FA02F3D040C2F120029140084319462A
:10064000704710B5141E73F1000408DA401C41F124
:10065000000192185B411A4301D120F0010010BD46
:100660002DE9F04D92469B4611B1B1FA81F202E0BC
:10067000B0FA80F220329046FFF7B2FF04460F46F0
:1006800040EA0A0041EA0B0153465A46084313D098
:10069000114653EA010019D0C8F140025046FFF755
:1006A000AEFF05460E46504659464246FFF798FFB4
:1006B000084305D0012004E020463946BDE8F08D0E
:1006C0000020054346EAE0762C4337430A98630549
:1006D000E40AA0EB08000022FD0A44EA47540A306D
:1006E00002D500200146E9E7010510196941DDE95D
:1006F000084500196941BDE8F04DA2E70848806946
:1007000040F00400064988610648006820F4704003
:10071000044908600846006840F44050086070478B
:10072000001002400408014070B54FF47A754FF68E
:10073000FF742F48006820F470402D490860084677
:10074000006840F440500860C8142949103108601E
:10075000122001F04DFD4FF4006025490C31086076
:10076000322001F06FFD2248006820F470402049DB
:1007700008600846006840F400400860081D0068F2
:1007800000F4006078BB00BF1948001D006800F449
:10079000006020B9281EA5F101018DB2F4D105B980
:1007A00070BD00BF1248001D006800F4006020B159
:1007B000201EA4F101018CB2F4D104B9F0E700F0DD
:1007C0001BF80C49087000F017F80A49487000F04F
:1007D00013F80849887000F00FF80649C87000F057
:1007E0000BF804490871FFF789FF00BFD8E7000044
:1007F000040801408D00002070B54FF6FF760025FB
:1008000021E06006040E00BF1148006800F400609B
:1008100020B9301EA6F101018EB2F5D11E2001F0E3
:1008200011FD0B48006800F4006048B144F0010479
:1008300000BF0748006800F400600028F9D100E01C
:1008400000BF681CC5B2082DDBDB204670BD000070
:100850000808014070B5044600250948007800F0FA
:10086000800058B100200649097801F07F01054A4F
:10087000505421461046FFF78FFC0546284670BDB0
:100880009C0000207C01002010B5002402210020E3
:1008900000F0C6FA00202249087080212148FFF7A5
:1008A00070FC142220A121A000F0A6F804461CB977
:1008B00021A000F08CFA02E023A000F088FA1422B4
:1008C00019A126A000F098F804461CB925A000F054
:1008D0007EFA02E026A000F07AFA4FF47A6001F086
:1008E00087FC42F2107210A125A000F085F80446A2
:1008F0001CB92CA000F06BFA02E02FA000F067FA00
:100900004FF4967208A131A000F076F804461CB9A5
:1009100031A000F05CFA02E033A000F058FA10BDFC
:100920009C0000207C0100204F4B000041542B43D1
:10093000574D4F44453D33004D6F64655365742EEC
:100940002E2E4F4B0A0000004D6F64655365742EC8
:100950002E2E4572726F720A0000000041542B5215
:100960005354000052657365742E2E2E4F4B0A00AF
:1009700052657365742E2E2E4572726F720A0000D6
:1009800041542B43574A41503D224368696E614EA2
:1009900065742D78445679222C2279737A656B64BC
:1009A00073712200526F75746572436F6E6E2E2ED6
:1009B0002E4F4B0A00000000526F75746572436F32
:1009C0006E6E2E2E4572726F720A000041542B43D8
:1009D00049504D55583D3000436F6E6E5365742E2F
:1009E0002E2E4F4B0A000000436F6E6E5365742E1F
:1009F0002E4572726F720A002DE9F04106460D46CF
:100A000014460027314611A000F01FFBD5B1CCB130
:100A100011E00A2001F0ECFB0E48007800F08000A5
:100A200048B12846FFF716FF08B1002707E0012765
:100A3000002008490870601E80B2041EE9D100BF82
:100A400004B901273846BDE8F081000025730D0A7E
:100A5000000000009C0000200848806940F0080069
:100A6000064988610648006820F07F6004490860F4
:100A70000846006840F04C70086070470010024063
:100A8000000C014000B540200A49086020200860A1
:100A900001F0E0F82020074908604020091D0860A7
:100AA00001F0D8F820200349091D086001F0D2F8B0
:100AB00000BD0000100C014000B52020094908606D
:100AC0004020086001F0C6F820200649091F086090
:100AD00001F0C0F840200349091F086001F0BAF88E
:100AE00000BD0000140C014000B52020074908603B
:100AF0004020086001F0AEF820200449091F08607A
:100B000001F0A8F820200149086000BD140C014044
:100B10000FB400B5A1B023A8009001A8009A2299B3
:100B200000F018FC0020009001A800F06DF921B041
:100B30005DF814FB30B5044600250A2C0FD111488E
:100B40000078401C0F49087008460078082800DD2E
:100B500030BD0C480178002000F062F9F8E7A4F1FC
:100B60002000C4B20AE004EB4401074A02EB41034F
:100B700029466A1CD5B2585C00F0D6FB062DF2DB84
:100B800000BFE5E7980000207022000830B5044659
:100B90000A2C12D124480078801C234908700020B8
:100BA00022490870204801782048007800F038F980
:100BB0001D480078082800DD30BDA4F12000C4B233
:100BC000002507E005EB0411194A505C00F0ACFB6E
:100BD000681CC5B2082DF5DB13480078401CC1B273
:100BE0001248007800F01CF9002508E005EB04111C
:100BF00008310F4A505C00F097FB681CC5B2082D05
:100C0000F4DB0A4800780830084908700648007884
:100C1000401EC0B2044A107001460448007800F03B
:100C2000FFF800BFC8E700009800002097000020F0
:100C3000A424000870B50646002415E004F1B001B4
:100C4000C8B200F05BFB012000F058FB102000F060
:100C500055FB002504E0304600F066FB681CC5B279
:100C6000802DF8DB601CC4B2082CE7DB70BD0000EF
:100C70002DE9F04306460F4614464FF0000900BF29
:100C80002078092802DC14F8019B04E014F8010B19
:100C9000303800F0FF09682E02DD0026781CC7B24C
:100CA0003946304600F0BCF8002520E04FF000083F
:100CB00010E009EB490105EB410101EB4101114A4B
:100CC00002EBC10111F8080000F02EFB08F1010051
:100CD00000F0FF08B8F1180FEBDB052D05DA7819E5
:100CE000401CC1B2304600F09BF8681CC5B2062D0E
:100CF000DCDB06F11800C6B220787828C0D1BDE848
:100D0000F0830000942A000810B5FFF7A5FE4FF409
:100D1000FA7001F06DFAAE2000F0F0FA202000F039
:100D2000EDFA102000F0EAFAB02000F0E7FAC8204F
:100D300000F0E4FA002000F0E1FA102000F0DEFA02
:100D4000402000F0DBFA812000F0D8FAFF2000F00C
:100D5000D5FAA12000F0D2FAA62000F0CFFAA82000
:100D600000F0CCFA3F2000F0C9FAA42000F0C6FA47
:100D7000D32000F0C3FA002000F0C0FAD52000F024
:100D8000BDFAF02000F0BAFAD92000F0B7FA22201C
:100D900000F0B4FADA2000F0B1FA122000F0AEFA56
:100DA000DB2000F0ABFA202000F0A8FA8D2000F044
:100DB000A5FA142000F0A2FAAF2000F09FFA00215B
:100DC000084600F02DF80020FFF734FF10BD0FB4E7
:100DD00000B5A1B023A8009001A8009A229900F0C4
:100DE000B9FA0020009001A800F003F821B05DF8E6
:100DF00014FB10B5044603E014F8010BFFF79AFE4C
:100E000020780028F8D110BD10B5044603E014F88E
:100E1000010BFFF7BBFE20780028F8D110BD0000C1
:100E200030B504460D460A4804700A48057005F1BD
:100E3000B001C8B200F062FA102141EA141000F0CB
:100E40005DFA04F00F0141F0010000F057FA30BDE7
:100E5000970000209800002000201349C860086116
:100E60001420486100208861C8610846006840F08D
:100E700001000860084640680C4908400A4948607B
:100E8000084600680A4908400749086008460068A3
:100E900020F4802008600846406820F4FE00486086
:100EA0000020886070470000001002400000FFF83A
:100EB000FFFFF6FE70B500250024FFF7CDFF1F48A9
:100EC000006840F480301D49086000BF01E0601CEC
:100ED000C4B21A480068400C08B9C82CF7DB18489F
:100EE000006840F03200164908601448406815490F
:100EF0000843124948600846006840F08070086066
:100F0000002401E0601CC4B20C480068400E08B91F
:100F1000C82CF7DB0948406840F0020007494860E8
:100F200007E006484068C0F38705601CC4B205F0BE
:100F30000305022D01D0C82CF3DB70BD0010024068
:100F40000020024000841D004FF08040008A00F025
:100F50000100002853D02C480078401C2A49087012
:100F6000084600783C284AD100200870084640789E
:100F7000401C4870084640783C2840D1002048700A
:100F800008468078401C887008468078182836D13A
:100F900001201E49087000201B4988700846C0784F
:100FA000401CC8700846C079401CC8710846C0790A
:100FB000072190FBF1F201FB12001349087108466A
:100FC000C0781349096A884219DD01200E49C870AA
:100FD00008464079401C487108464079401E0D493A
:100FE00051F820000A490862074840790B2806DDBD
:100FF00000200549487108468079401C887100200E
:101000004FF0804108827047540000208C0000207F
:10101000540100205C00002000BF0549098801F050
:1010200040010029F9D00249091D088070470000DD
:101030000038014000B5024603E012F8010BFFF74B
:10104000EBFF10780028F8D100BD0FB400B5A1B0B7
:1010500023A8009001A8009A229900F07BF90020B3
:10106000009001A8FFF7E6FF21B05DF814FB000037
:1010700000BF0549098801F040010029F9D0024963
:10108000091D0880704700000044004000B502467A
:1010900003E012F8010BFFF7EBFF10780028F8D1FE
:1010A00000BD0FB400B5A1B023A8009001A8009A1C
:1010B000229900F04FF90020009001A8FFF7E6FF09
:1010C00021B05DF814FB00001248008800F02000F9
:1010D00058B11048001D0088C1B20F48027800784E
:1010E000401C0D4B18700D4881540A48008800F0D0
:1010F000100068B10748001D008800210748064A13
:10110000127881540448007840F080000249087049
:1011100070470000003801409C0000207C01002046
:101120001448008800F0200058B11248001D0088C3
:10113000C1B2114802780078401C0F4B18700F485C
:1011400081540C48008800F0100050B10948001D7F
:10115000008800210948084A127881540120084972
:101160000870054800787F2802DD012004490870D6
:10117000704700000044004052000020D4000020CE
:10118000530000201D4A926942F480421B4B9A6131
:101190001B4A126822F47F62194B1A601A461268C1
:1011A00042F40B621A60164A1432126842F4C062AA
:1011B000134B14331A60134A4243B2FBF1F2124B41
:1011C0001A8008221B1D1A8042F22C121A801A461D
:1011D000128842F400521A801A46128842F0100215
:1011E0001A800A4A126842F020024FF0E023C3F846
:1011F00004210023064A13707047000000100240CB
:101200000408014040420F000838014004E100E0BA
:1012100025E400E01E4AD26942F400321C4BDA6138
:101220001C4A126822F47F421A4B1A601A4612684E
:1012300042F40B421A60174A1832126842F00C024C
:10124000144B18331A60144A4243B2FBF1F2134BA9
:101250001A801A1D128842F23C031A430F4B1B1DC1
:101260001A801A46128842F020021A801A46128802
:1012700042F010021A800A4A126842F040024FF00F
:10128000E023C3F804211023064A137070470000BE
:10129000001002400008014040420F000844004096
:1012A00004E100E026E400E010B50246082419E05D
:1012B00020201149086000F0CDFC02F0800020B130
:1012C00040200D49091F086002E040200A490860DB
:1012D0005006020E00F0BEFC20200749091F0860DE
:1012E00000F0B8FC201EA4F10101CCB2E0D1202016
:1012F0000149086010BD0000140C014010B50446FF
:10130000FFF7C0FB7820FFF7CFFFFFF7EDFB0020D2
:10131000FFF7CAFFFFF7E8FB2046FFF7C5FFFFF71F
:10132000E3FBFFF7C9FB10BD10B50446FFF7AAFBAE
:101330007820FFF7B9FFFFF7D7FB4020FFF7B4FF96
:10134000FFF7D2FB2046FFF7AFFFFFF7CDFBFFF71C
:10135000B3FB10BD37B514460846064B6A46214616
:1013600000F0DCF804466946002000F06EFC2046E0
:101370003EBD00004B1C000802E008C8121F08C157
:10138000002AFAD170477047002001E001C1121F06
:10139000002AFBD1704700002DE9FF5F82B00021D9
:1013A000DDE90430020DDDF840B0034318D044F607
:1013B0001050A2F2FF3242431514119801281FD099
:1013C000A5EB0B00401C5FEA000A4FF000064E4FF1
:1013D000DFF83891B046504615D5CAF1000413E045
:1013E000119801244AA3012801D16FEA0B01029848
:1013F000119AC0E90031C0E9024206B0BDE8F09F91
:10140000CBF10000DFE704460021404A491842EBD7
:101410000450CDE9001012E0E00707D032463B4609
:1014200040464946FEF7B8FF8046894632463B466D
:1014300010461946FEF7B0FF06460F466410002C12
:10144000EAD1DDE90401DDE90023BAF1000F06DA93
:10145000FEF7A2FF42464B46FEF79EFF05E0FFF770
:101460000DF842464B46FFF709F804460E460022A7
:10147000284BFFF78BF803D84FF0FF30014607E009
:101480000022254B20463146FEF7DFFEFFF765F8C8
:10149000102409E0002C0ADB0A220023FEF7A4FE38
:1014A000039B30321A55641E50EA0102F2D1641CCB
:1014B000039AC4F111031444119A012A03D00122A2
:1014C00008430DD10AE0084304D000204FF0110B6F
:1014D000119072E7A3EB0B056D1E0DE05B4504DD7B
:1014E0004FF0000205F1010504E003DA4FF00002BD
:1014F000A5F10105002AECD002981199C0E902314A
:10150000C0E9004579E70000000014400000F03F0A
:10151000300000000000F0430000E03F2DE9FF4FE5
:1015200095B09B468946064600250FE2252877D1CF
:1015300000242746F84A0121059400E0044316F8E8
:10154000013F203B01FA03F01042F7D130782A28FE
:1015500011D06FF02F033078A0F13002092A16D88D
:10156000059A44F0020402EB820203EB42021044AB
:10157000761C0590EFE759F8042B0592002A03DA50
:10158000504244F40054059044F00204761C307834
:101590002E2816D116F8010F44F004042A280DD085
:1015A0006FF02F023078A0F13003092B09D807EB38
:1015B000870302EB4303C718761CF3E759F8047B53
:1015C000761C30786C280FD006DC4C2817D06828A1
:1015D0000DD06A2814D104E0742810D07A280FD1D5
:1015E0000DE044F400140AE044F4801401E044F4F3
:1015F00040147278824202D104F58014761C761C65
:10160000307866280BD013DC582877D009DC002806
:1016100075D04528F6D04628F4D047281AD19DE148
:1016200018E0632835D0642879D0652812D195E177
:10163000702873D008DC6728F1D069286FD06E2835
:101640000DD06F2806D1B5E073282CD0752875D041
:10165000782874D05A46179990476D1C75E1C4F3E9
:101660000250022809D003280DD0D9F80010042810
:101670000DD00D6009F1040967E1D9F80010EA17EF
:10168000C1E90052F6E7D9F800100D80F2E70D70BD
:10169000F0E719F8041B8DF8001000208DF8010008
:1016A000EA46012003E059F804AB4FF0FF30610730
:1016B0004FF0000102D40DE008F101018846B94263
:1016C0000FDA8045F8DB1AF808100029F4D108E099
:1016D00008F1010188468142FADB1AF80810002956
:1016E000F6D105985B46A0EB080721463846179AC5
:1016F00000F094FA284400EB080507E04DE029E1EA
:101700000DE01AF8010B5A4617999047B8F10108F5
:10171000F7D25B4621463846179A13E142E00A2287
:101720000092C4F302524FF0000A022A08D059F87E
:1017300004CB032A4FEAEC710AD00DE029E02AE03D
:1017400009F1070121F00702F2E802C1914609E020
:101750000FFA8CFC4FEAEC71042A03D14FFA8CFC8F
:101760004FEAEC71002907DA0A460021DCF1000C8F
:1017700061EB02012D2202E0220504D52B228DF817
:101780000420012203E0E20701D02022F7E790467F
:1017900059E00A2102E010220DE010214FF0000A6A
:1017A00000910BE010224FF0000A44F004040827D7
:1017B000009203E008224FF0000A0092C4F30252A4
:1017C000022A05D059F804CB0021032A08D009E0E9
:1017D00009F1070121F00702F2E802C1914605E094
:1017E0001FFA8CFC042A01D10CF0FF0C4FF000080A
:1017F000220728D5702806D0009B83F0100353EAF7
:101800000A0305D00EE040228DF80420012208E0F2
:101810005CEA010206D030228DF804208DF8050024
:1018200002229046009B83F0080353EA0A030AD180
:101830005CEA010201D1620705D530228DF804204F
:101840004FF001087F1E582804D034A003900EA842
:1018500002900DE036A0F9E753466046009AFEF785
:10186000C3FC84460398825C0298401E029002707A
:101870005CEA0100F0D1029806A9081A00F1200ADA
:10188000600702D524F4803400E00127574502DDCB
:10189000A7EB0A0000E0002000EB0A010090059889
:1018A0004144401A0590E00306D45B462146179A4E
:1018B000059800F0B3F90544002706E001A85A4650
:1018C000C05D179990476D1C7F1C4745F6DBE00310
:1018D0000CD55B462146179A059800F09FF9054400
:1018E00004E030205A46179990476D1C0099481E15
:1018F00000900029F5DC08E0029802995A46007829
:10190000491C0291179990476D1CBAF10001AAF188
:10191000010AF1DC65E100000928010030313233B1
:10192000343536373839616263646566000000001B
:101930003031323334353637383941424344454605
:101940000000000000F058F90544761C30780028AB
:101950007FF4ECAD19B02846BDE8F08F620700D4E3
:10196000062709F1070222F0070CFCE80223E146F2
:1019700003F000485FEA080C02D00FF2702C0DE073
:101980005FEA045C02D50FF2682C07E05FEAC47CD2
:1019900002D00FF2602C01E0AFF2700C4FF0FF3874
:1019A00023F00043CDF850C065280CD006DC452854
:1019B00009D046281DD047283DD13DE0662818D0E3
:1019C00067287ED138E00021112F01DB112000E0D3
:1019D000781CCDE9000106A90EA8FFF7DDFCDDE9C2
:1019E0000F010E9A03910021009207F1010A049160
:1019F0004DE04FF000400097CDE9011006A90EA878
:101A0000FFF7CAFCDDE90F0203920E9B1199002239
:101A1000DDF80CA00093049211B9791C00EB010AC7
:101A2000B7EB0A0004D4C0F1FF3007F1010A0490BB
:101A3000AAEB0700019044E0012F00DA0127002102
:101A4000112F01DD112000E03846CDE9000106A983
:101A50000EA8FFF7A1FCDDE90F010E9A039100210A
:101A600004910092BA4621070CD40399514500DA3B
:101A70008A46BAF1010F05DD009AAAF10101515C15
:101A8000302908D0B84202DA10F1040F06DA012139
:101A9000CDE9011015E0AAF10101E9E7002805DC14
:101AA000049901440491AAEB000102E0411C514554
:101AB00000DD8A460499401A401C01904FF0004016
:101AC0000290200704D40198504501DBCDF8048032
:101AD00000208DF84F0002980DF14F07B0F1004F34
:101AE00025D02B200E9002984FF0020800280CDA27
:101AF000404202902D200E9007E00A210298FEF746
:101B00005DFB3031029007F8011DB8F10001A8F12A
:101B10000108F2DC02980028EFD1791E0E980870B7
:101B2000307800F0200040F0450007F8020D12A8C0
:101B3000C01B00F107081498007800B1012000EBE9
:101B40000A01019801EBE07105984144401A401EDA
:101B50000590E00306D45B462146179A059800F0ED
:101B60005DF805441498007818B15A4617999047C3
:101B70006D1CE00324D55B462146179A059800F0BA
:101B80004DF805441CE00498002807DBDDE903015B
:101B9000884203DD0098405C179901E017993020D6
:101BA0005A469047049805F10105401C049001989D
:101BB000401E019004D12E205A46179990476D1C63
:101BC000BAF10001AAF1010ADDDC05E017F8010B0A
:101BD0005A46179990476D1CB8F10001A8F1010809
:101BE000F4DC5B462146179A0598ABE62D00000011
:101BF0002B000000200000002DE9F04104460025E4
:101C00001E461746880404D405E039462020B04714
:101C10006D1C641EF9D52846BDE8F0812DE9F04120
:101C2000044600251E469046C80301D5302700E033
:101C30002027880404D505E041463846B0476D1C8E
:101C4000641EF9D52846BDE8F0810A68531C0B6074
:101C50001070704708B50520009000BF9DF8000087
:101C6000411EC9B200910028F8D108BD70B5012508
:101C7000642402E000F02CF8054625B1201EA4F1F2
:101C80000101CCB2F6D10CB9012070BD0D4800782D
:101C90000D4988710B48007948710A48007AC8706C
:101CA0000848007B88700748007C48700548007D24
:101CB0000870044890F82400087104480078C8713E
:101CC0000020E2E75401002054000020D000002052
:101CD000F0B58DB06FF07F4640F26C74AAA0FFF7AC
:101CE000B4F90020B34908708021B348FEF749FADF
:101CF000642000F07DFA302101A8FEF742FA642248
:101D0000AEA1AFA0FEF778FEE3208DF8040000201E
:101D10008DF8050006208DF80600EC208DF80700F0
:101D200031208DF810004E208DF8110031208DF8F3
:101D3000120034208DF8130000209E490870802185
:101D40009D48FEF71EFA002505E001A9485DFFF752
:101D500063F9681CC5B2302DF7DB14E095480078B4
:101D600000F0800078B19348007880383C2803DB8D
:101D70000020904908700AE000208E4908708021F8
:101D80008D48FEF7FEF9301EA6F10106E6D100BF30
:101D900016B901200DB0F0BD8748807A242830D1D3
:101DA0008548C07A80098A490877834890F82A00D4
:101DB00088610846806900028861084680697E491A
:101DC00091F82B1008438249886108468069000217
:101DD000886108468069784991F82C1008437C494D
:101DE00088610846806900028861084680697249F6
:101DF00091F82D1008437649886100206D490870DC
:101E000004E000206B4908700120C3E77048007FA0
:101E1000032801D10220BDE76D48806900F5E1404B
:101E20006B498861084680696A490860084600680D
:101E30006949B0FBF1F06749086008460068401C3A
:101E40000860084600680721B0FBF1F201FB1200B0
:101E50005F4981F8240000BFE11704EB91718910FC
:101E6000A4EB810129B9642194FBF1F201FB124139
:101E700031B94FF4C87194FBF1F201FB124109B979
:101E8000564F00E0564F52488069B84200D207E0F2
:101E90004F488069C01B4E498861601C84B2DBE7F3
:101EA00000BF4B480460E11704EB91718910A4EB6B
:101EB000810129B9642194FBF1F201FB124131B98E
:101EC0004FF4C87194FBF1F201FB124111B91D20CE
:101ED00044494860002519E03D488169414850F86F
:101EE000250040F2A3225043B1EBC01F00D20FE007
:101EF000374881693B4850F8250040F2A3225043FF
:101F0000A1EBC01032498861681CC5B20C2DE3DB1F
:101F100000BF344850F825002D4908620846456046
:101F200080692D49B0FBF1F0401C294988600846C2
:101F300080692949B0FBF1F201FB12002449886154
:101F4000084680694FF46161B0FBF1F02049C86038
:101F5000084680694FF46161B0FBF1F201FB1200A9
:101F60001B498861084680693C21B0FBF1F01849A3
:101F70000861084680693C21B0FBF1F201FB1200C8
:101F800013494861002005E741542B4349505354FD
:101F90004152543D22554450222C22312E636E2E44
:101FA000706F6F6C2E6E74702E6F7267222C3132D0
:101FB000330D0A009C0000207C0100204F4B0000E4
:101FC00041542B43495053454E443D3438000000A2
:101FD00054010020D0000020805101000085E20162
:101FE0008033E101A0000020FEF764FF4B484C491C
:101FF00008604C48806940F01D004A4988614FF4F0
:10200000E1312420FFF706F94FF4E1314820FFF7D2
:10201000B9F8FEF779FEFEF771FBFEF735FCFFF726
:1020200025FE18B140A0FFF73CF802E045A0FFF7FD
:1020300038F800F0AFF800210846FEF7F1FE002066
:10204000FEF7F8FD4548006840F00300434908608A
:1020500042480C30006840F0010040490C310860F3
:102060005BE0FEF761FB00210846FEF7D9FE3C4825
:10207000C3784079DFF8ECC00CEB80023848007977
:10208000DFF8E4C00CEB800138A0FEF741FD002131
:102090005820FEF7C5FE3848817838A0FEF797FE35
:1020A0007C20FEF747FD01215820FEF7B9FE32489B
:1020B000017834A0FEF78BFE294880780A2190FB36
:1020C000F1F0C4B22648807890FBF1F201FB1200D7
:1020D000C5B22348407890FBF1F0C6B22048407862
:1020E00090FBF1F201FB1200C7B228480470457062
:1020F0003A20264988700846C670077178204871D2
:102100000A4602210820FEF7B3FD2148007820B1DD
:10211000FFF7ACFD00201E490870A2E70003AF05E1
:102120000CED00E00010024047657454696D65468F
:10213000726F6D4E54502E2E2E4552524F520D0A34
:102140000000000047657454696D6546726F6D4EFE
:1021500054502E2E2E4F4B0D0A000000000C014053
:10216000540000201C0000200000002025732025C2
:1021700073202564200000008D00002054203A25A3
:102180006400000052483A25642525004C000020D8
:102190008C0000201348C06940F001001149C8615B
:1021A00041F61F408904088542F20F708885084671
:1021B000808A40F0010088820846808940F0010052
:1021C00088810846008840F00100088006480068C1
:1021D00040F080504FF0E021C1F800012021034879
:1021E000017070470010024000E100E01CE400E0D4
:1021F000014642F2283201FB02F01DE0104A9042F3
:1022000004D94FF0E0235A61801A03E04FF0E02236
:102210005061002000224FF0E0239A6101221A61F0
:1022200000BF4FF0E022126902F48032002AF8D099
:1022300000224FF0E0231A610028DFD17047000030
:102240000024F40000EBC0014FF0E02251610021B6
:1022500091610121116100BF4FF0E021096901F492
:1022600080310029F8D000214FF0E0221161704741
:102270000000000000000000002F00000000070028
:10228000070000147F147F1400242A7F2A120062A2
:10229000640813230036495522500000050300004E
:1022A00000001C224100000041221C000014083ED6
:1022B00008140008083E0808000000A0600000089C
:1022C00008080808000060600000002010080402F0
:1022D000003E5149453E0000427F400000426151AE
:1022E0004946002141454B31001814127F10002748
:1022F00045454539003C4A4949300001710905030B
:1023000000364949493600064949291E000036363B
:10231000000000005636000000081422410000149E
:10232000141414140000412214080002015109067B
:1023300000324959513E007C1211127C007F4949FC
:102340004936003E41414122007F4141221C007F2D
:1023500049494941007F09090901003E4149497A3B
:10236000007F0808087F0000417F410000204041B5
:102370003F01007F08142241007F40404040007F21
:10238000020C027F007F0408107F003E4141413E65
:10239000007F09090906003E4151215E007F0919AD
:1023A00029460046494949310001017F0101003FAA
:1023B0004040403F001F2040201F003F4038403F2A
:1023C000006314081463000708700807006151498E
:1023D000454300007F41410000552A552A55000021
:1023E00041417F000004020102040040404040409F
:1023F000000001020400002054545478007F484437
:10240000443800384444442000384444487F00386D
:102410005454541800087E0901020018A4A4A47C96
:10242000007F080404780000447D40000040808460
:102430007D00007F102844000000417F4000007CA8
:1024400004180478007C08040478003844444438B4
:1024500000FC242424180018242418FC007C080400
:10246000040800485454542000043F444020003CD9
:102470004040207C001C2040201C003C4030403C60
:10248000004428102844001CA0A0A07C00446454F0
:102490004C441414141414140002023C424200036D
:1024A00003708888000000000000000000000000A9
:1024B00000000000000000F80000000000000033F1
:1024C0003000000000100C06100C06000000000098
:1024D0000000000040C07840C0784000043F040481
:1024E0003F040400007088FC08300000001820FF42
:1024F000211E0000F008F000E018000000211C037D
:102500001E211E0000F00888700000001E212324F8
:102510001927211010160E00000000000000000016
:1025200000000000000000E01804020000000007A6
:102530001820400000020418E000000000402018AD
:1025400007000000404080F0804040000202010F80
:1025500001020200000000F0000000000101011F64
:1025600001010100000000000000000080B07000C8
:102570000000000000000000000000000001010158
:1025800001010101000000000000000000303000E7
:1025900000000000000000008060180400601806C1
:1025A0000100000000E010080810E000000F1020FB
:1025B00020100F00001010F8000000000020203F45
:1025C00020200000007008080888700000302824CF
:1025D0002221300000300888884830000018202070
:1025E00020110E000000C02010F800000007042495
:1025F000243F240000F808888808080000192120DA
:1026000020110E0000E0108888180000000F112033
:1026100020110E0000380808C83808000000003FEC
:10262000000000000070880808887000001C22214B
:1026300021221C0000E010080810E00000003122F8
:1026400022110F00000000C0C00000000000003098
:1026500030000000000000800000000000008060EA
:10266000000000000000804020100800000102046B
:102670000810200040404040404040000404040452
:10268000040404000008102040800000002010080E
:1026900004020100007048080808F0000000003043
:1026A00036010000C030C828E810E00007182724D1
:1026B00023140B000000C038E0000000203C23027F
:1026C0000227382008F8888888700000203F2020E2
:1026D00020110E00C0300808080838000718202014
:1026E0002010080008F808080810E000203F20200B
:1026F00020100F0008F88888E8081000203F2020EC
:102700002320180008F88888E8081000203F2000DF
:1027100003000000C0300808083800000718202017
:10272000221E020008F808000008F808203F2101D6
:1027300001213F20000808F8080800000020203F81
:102740002020000000000808F8080800C0808080F1
:102750007F00000008F888C028180800203F2001EA
:102760002638200008F8080000000000203F202044
:102770002020300008F8F800F8F80800203F003F5B
:10278000003F200008F830C00008F808203F200073
:1027900007183F00E01008080810E0000F10202084
:1027A00020100F0008F808080808F000203F210159
:1027B00001010000E01008080810E0000F182424B0
:1027C00038504F0008F8888888887000203F200023
:1027D000030C3020007088080808380000382021D9
:1027E00021221C00180808F8080818000000203FE3
:1027F0002000000008F808000008F808001F20204A
:1028000020201F000878880000C83808000007381A
:102810000E010000F80800F80008F800033C07006B
:10282000073C0300081868808068180820302C03D3
:10283000032C30200838C800C83808000000203FAA
:102840002000000010080808C83808002038262199
:1028500020201800000000FE020202000000007F9D
:1028600040404000000C30C00000000000000001AB
:102870000638C00000020202FE0000000040404096
:102880007F000000000004020202040000000000BB
:102890000000000000000000000000008080808038
:1028A0008080808000020204000000000000000020
:1028B00000000000000080808080000000192422B9
:1028C00022223F2008F8008080000000003F1120F5
:1028D00020110E000000008080800000000E1120FA
:1028E00020201100000000808088F800000E1120D8
:1028F00020103F200000808080800000001F2222E6
:1029000022221300008080F0888888180020203F51
:10291000202000000000808080808000006B949464
:102920009493600008F8008080800000203F210020
:1029300000203F2000809898000000000020203FE9
:1029400020200000000000809898000000C08080D7
:10295000807F000008F8000080808000203F240273
:102960002D302000000808F8000000000020203F63
:10297000202000008080808080808000203F200018
:102980003F20003F8080008080800000203F2100A9
:1029900000203F200000808080800000001F202059
:1029A00020201F00808000808000000080FFA12088
:1029B00020110E000000008080808000000E112099
:1029C00020A0FF80808080008080800020203F2128
:1029D00020000100000080808080800000332424DB
:1029E00024241900008080E0808000000000001F87
:1029F000202000008080000000808000001F202038
:102A000020103F20808080000080808000010E30F8
:102A10000806010080800080008080800F300C0359
:102A20000C300F0000808000808080000020312E5C
:102A30000E312000808080000080808080818E7038
:102A40001806010000808080808080000021302CEA
:102A50002221300000000000807C02020000000003
:102A6000003F404000000000FF00000000000000A8
:102A7000FF0000000002027C800000000040403F98
:102A80000000000000060101020204040000000032
:102A900000000000000000000080C0E0E0F0F0F066
:102AA000F0F0E0E0C0800000000000000000E0FC6A
:102AB000FEFF7F0F03010000000001031FFFFFFE68
:102AC000F88000000000FFFFFFFF00000000000092
:102AD000000000000001FFFFFFFF000000007FFF7B
:102AE000FFFFC000000000000000000000F0FFFF3A
:102AF000FF3F0000000000030F1F7F7EF8F0E0E0C2
:102B0000E0E0F0FC7F3F1F07010000000000000034
:102B100000000000000101010101000000000000B0
:102B2000000000000000000000000000C0F0F0F015
:102B30000000000000000000000000000000060689
:102B4000060607FFFFFFFFFF000000000000000077
:102B50000000000000000000000000FFFFFFFFFF7A
:102B60000000000000000000000000000000000065
:102B7000000000FFFFFFFFFF00000000000000005A
:102B80000000000000000000000000FFFFFFFFFF4A
:102B90000000000000000000000000000000000035
:102BA0000000000101010101000000000000000020
:102BB00000000000000000000080C0E0E0F0F0F045
:102BC000F0F0F0E0E0C0800000000000000000F045
:102BD000FEFFFF0F0101000000000003FFFFFFFFE9
:102BE000F8000000000000000000000000000000ED
:102BF00080C0F0FCFF7F1F07010000000000000004
:102C0000000080E0F0FCFE3F1F0F07010000000005
:102C1000000000000000E0F8FCFFFFEFE3E1E0E06F
:102C2000E0E0E0E0E0E0E0E0E000000000000101C2
:102C30000101010101010101010101010101010184
:102C400001000000000000000080C0E0E0F0F07033
:102C500070F0F0E0E0C08000000000000000003CE8
:102C60003F3F3F070100000000000003FFFFFFFEA1
:102C70000000000000000000000000000000707074
:102C8000F0F8F8DCDF8F0703000000000000C0C090
:102C9000C0C00000000000000000000107FFFFFEB0
:102CA000F80000000000030F3F7FFFF8F0E0E0E0D5
:102CB000E0E0F0F8FE7F3F0F03000000000000009E
:102CC00000000000010101010101010000000000FD
:102CD00000000000000000000000000000000000F4
:102CE00080E0F0F0F0F000000000000000000000C4
:102CF0000000000080E0F8FE3FFFFFFFFFFF000044
:102D0000000000000000000080E0F8FE3F0F03001C
:102D100000FFFFFFFFFF00000000000000F0FCFECE
:102D2000FFFFF7F0F0F0F0F0F0FFFFFFFFFFF0F033
:102D3000F0F00000000000000000000000000000B3
:102D400000FFFFFFFFFF0000000000000000000088
:102D5000000000000000000000010101010100006E
:102D60000000000000000000F0F0F0F0F0F0F0F0E3
:102D7000F0F0F0F0F0F0F0F000000000000000C013
:102D8000FFFFFF3F00000000000000000000000007
:102D900000000000000000FFFFFFFF78381C1E0E3F
:102DA0000E0E1E3EFCFCF8E0800000000000C0C0DB
:102DB000C0C00000000000000000000000FFFFFF96
:102DC000FF0000000000030F3F7FFFF8F0E0E0E0AD
:102DD000E0F0F0FC7F3F1F0F01000000000000004A
:102DE00000000000010101010101000000000000DD
:102DF000000000000000000000000080C0E0E0F0E3
:102E0000F0F0F0F0E0E0C080000000000000008082
:102E1000F0FCFFFF1F07010000000001071F1F1F3C
:102E20001C000000000000FFFFFFFFF1783C1C1EAB
:102E30000E0E1E3EFCFCF8E080000000000000FFCB
:102E4000FFFFFF83000000000000000000FFFFFF05
:102E5000FF00000000000000071F3F7FFCF0E0E0E3
:102E6000E0E0E0F0FC7F3F1F0700000000000000F2
:102E7000000000000000010101010100000000004D
:102E800000000000000000F0F0F0F0F0F0F0F0F0D2
:102E9000F0F0F0F0F0F0F0F0F000000000000000C2
:102EA0000000000000000000000000E0FEFFFF1F27
:102EB0000100000000000000000000000000000011
:102EC00000F0FEFFFF0F0100000000000000000006
:102ED00000000000000080F8FFFFFF0F000000006E
:102EE000000000000000000000000000C0F8FFFF2C
:102EF0007F0700000000000000000000000000004C
:102F000000000000010101010000000000000000BD
:102F100000000000000000000080C0E0E0F0F07061
:102F200070F0F0E0E0C0800000000000000000FC55
:102F3000FFFFFF070100000000000001FFFFFFFE90
:102F4000F000000000000001078F9FFEF8F0F0F095
:102F5000F0F0F8FCDF9F0F03000000000000F0FC21
:102F6000FFFF1F03010000000000000107FFFFFE3C
:102F7000FCE000000000030F3F7FFFF8F0E0E0E01E
:102F8000E0E0F0F0FC7F3F1F0700000000000000C1
:102F9000000000000101010101010100000000002A
:102FA00000000000000000000080C0E0E0F0F070D1
:102FB000F0F0E0E0C080000000000000000080FCB5
:102FC000FFFFFF070100000000000107FFFFFFF8FF
:102FD000C00000000000037FFFFFFFC000000000F2
:102FE000000080C0FFFFFFFFFF00000000000000A6
:102FF0000103070F0F0E0E0E0E0F0703F9FFFFFF61
:103000001F000000000000071F3F7FFCF0E0E0E031
:10301000E0F0FC7F3F1F07010000000000000000FF
:10302000000000000101010101000000000000009B
:103030000000000000000000000000000000000090
:103040000000000000000000000000000000000080
:103050000000000000787878787800000000000018
:103060000000000000000000000000000000000060
:103070000000000000000000000000000000000050
:103080000000000000000000000000000000000040
:10309000000000000000000000000000000F0F0F03
:1030A0000F0F000000000000000000000000000002
:1030B0000000000000000000000000000000000010
:1030C00000000000E430000800000020D4000000F0
:1030D00078130008B8310008D40000202C09000043
:1030E0008813000853756E004D6F6E0054756500AF
:1030F0005765640054687500467269005361740036
:103100004A616E00466562004D6172004170720056
:103110004D6179004A756E004A756C004175670013
:10312000536570004F6374004E6F76004465630012
:10313000000000000000000000000000000000008F
:103140001F0000001C0000001F0000001E00000007
:103150001F0000001E0000001F0000001F000000F4
:103160001E0000001F0000001E0000001F000000E5
:10317000000000000000000000000000000000004F
:10318000000000001F0000001C0000001F000000E5
:103190001E0000001F0000001E0000001F000000B5
:1031A0001F0000001E0000001F0000001E000000A5
:0831B0001F00000000000000F8
:0400000508000131BD
:00000001FF
